{
  "_format": "hh-sol-artifact-1",
  "contractName": "TradingPlatform",
  "sourceName": "contracts/TradingPlatform.sol",
  "abi": [
    {
      "inputs": [
        {
          "internalType": "address",
          "name": "_tradeToken",
          "type": "address"
        },
        {
          "internalType": "address",
          "name": "_userRegistry",
          "type": "address"
        },
        {
          "internalType": "address",
          "name": "_priceFeed",
          "type": "address"
        }
      ],
      "stateMutability": "nonpayable",
      "type": "constructor"
    },
    {
      "anonymous": false,
      "inputs": [
        {
          "indexed": true,
          "internalType": "address",
          "name": "user",
          "type": "address"
        },
        {
          "indexed": false,
          "internalType": "uint256",
          "name": "amount",
          "type": "uint256"
        }
      ],
      "name": "Borrowed",
      "type": "event"
    },
    {
      "anonymous": false,
      "inputs": [
        {
          "indexed": true,
          "internalType": "address",
          "name": "user",
          "type": "address"
        },
        {
          "indexed": false,
          "internalType": "uint256",
          "name": "profit",
          "type": "uint256"
        },
        {
          "indexed": false,
          "internalType": "uint256",
          "name": "loss",
          "type": "uint256"
        }
      ],
      "name": "TradeSettled",
      "type": "event"
    },
    {
      "inputs": [],
      "name": "BORROW_PERIOD",
      "outputs": [
        {
          "internalType": "uint256",
          "name": "",
          "type": "uint256"
        }
      ],
      "stateMutability": "view",
      "type": "function"
    },
    {
      "inputs": [],
      "name": "INTEREST_RATE",
      "outputs": [
        {
          "internalType": "uint256",
          "name": "",
          "type": "uint256"
        }
      ],
      "stateMutability": "view",
      "type": "function"
    },
    {
      "inputs": [],
      "name": "POOL_PROFIT_PERCENTAGE",
      "outputs": [
        {
          "internalType": "uint256",
          "name": "",
          "type": "uint256"
        }
      ],
      "stateMutability": "view",
      "type": "function"
    },
    {
      "inputs": [],
      "name": "STAKE_PERCENTAGE",
      "outputs": [
        {
          "internalType": "uint256",
          "name": "",
          "type": "uint256"
        }
      ],
      "stateMutability": "view",
      "type": "function"
    },
    {
      "inputs": [
        {
          "internalType": "uint256",
          "name": "amount",
          "type": "uint256"
        }
      ],
      "name": "addFundsToPool",
      "outputs": [],
      "stateMutability": "nonpayable",
      "type": "function"
    },
    {
      "inputs": [
        {
          "internalType": "uint256",
          "name": "amount",
          "type": "uint256"
        }
      ],
      "name": "borrow",
      "outputs": [],
      "stateMutability": "nonpayable",
      "type": "function"
    },
    {
      "inputs": [
        {
          "internalType": "address",
          "name": "user",
          "type": "address"
        }
      ],
      "name": "getTradeDetails",
      "outputs": [
        {
          "internalType": "uint256",
          "name": "",
          "type": "uint256"
        },
        {
          "internalType": "uint256",
          "name": "",
          "type": "uint256"
        },
        {
          "internalType": "uint256",
          "name": "",
          "type": "uint256"
        },
        {
          "internalType": "bool",
          "name": "",
          "type": "bool"
        }
      ],
      "stateMutability": "view",
      "type": "function"
    },
    {
      "inputs": [],
      "name": "priceFeed",
      "outputs": [
        {
          "internalType": "contract AggregatorV3Interface",
          "name": "",
          "type": "address"
        }
      ],
      "stateMutability": "view",
      "type": "function"
    },
    {
      "inputs": [],
      "name": "settleTrade",
      "outputs": [],
      "stateMutability": "nonpayable",
      "type": "function"
    },
    {
      "inputs": [],
      "name": "totalPoolFunds",
      "outputs": [
        {
          "internalType": "uint256",
          "name": "",
          "type": "uint256"
        }
      ],
      "stateMutability": "view",
      "type": "function"
    },
    {
      "inputs": [],
      "name": "tradeToken",
      "outputs": [
        {
          "internalType": "contract IERC20",
          "name": "",
          "type": "address"
        }
      ],
      "stateMutability": "view",
      "type": "function"
    },
    {
      "inputs": [
        {
          "internalType": "address",
          "name": "",
          "type": "address"
        }
      ],
      "name": "trades",
      "outputs": [
        {
          "internalType": "uint256",
          "name": "amount",
          "type": "uint256"
        },
        {
          "internalType": "uint256",
          "name": "startTime",
          "type": "uint256"
        },
        {
          "internalType": "uint256",
          "name": "initialPrice",
          "type": "uint256"
        },
        {
          "internalType": "bool",
          "name": "isActive",
          "type": "bool"
        }
      ],
      "stateMutability": "view",
      "type": "function"
    },
    {
      "inputs": [],
      "name": "userRegistry",
      "outputs": [
        {
          "internalType": "contract UserRegistry",
          "name": "",
          "type": "address"
        }
      ],
      "stateMutability": "view",
      "type": "function"
    }
  ],
  "bytecode": "0x60806040523480156200001157600080fd5b5060405162001ce238038062001ce283398181016040528101906200003791906200016c565b826000806101000a81548173ffffffffffffffffffffffffffffffffffffffff021916908373ffffffffffffffffffffffffffffffffffffffff16021790555081600160006101000a81548173ffffffffffffffffffffffffffffffffffffffff021916908373ffffffffffffffffffffffffffffffffffffffff16021790555080600260006101000a81548173ffffffffffffffffffffffffffffffffffffffff021916908373ffffffffffffffffffffffffffffffffffffffff160217905550505050620001c8565b600080fd5b600073ffffffffffffffffffffffffffffffffffffffff82169050919050565b6000620001348262000107565b9050919050565b620001468162000127565b81146200015257600080fd5b50565b60008151905062000166816200013b565b92915050565b60008060006060848603121562000188576200018762000102565b5b6000620001988682870162000155565b9350506020620001ab8682870162000155565b9250506040620001be8682870162000155565b9150509250925092565b611b0a80620001d86000396000f3fe608060405234801561001057600080fd5b50600436106100cf5760003560e01c806392cc47601161008c578063d83678ac11610066578063d83678ac146101f3578063ec21d81714610211578063ef622d7a14610244578063f1139d0f1461024e576100cf565b806392cc476014610186578063a9f752e5146101a4578063c5ebeaec146101d7576100cf565b806321fcb0dd146100d45780633b89f418146100f05780634d27bd061461010e5780635b72a33a1461012c5780635c7460d61461014a578063741bef1a14610168575b600080fd5b6100ee60048036038101906100e991906110e9565b61026c565b005b6100f8610367565b6040516101059190611125565b60405180910390f35b61011661036c565b6040516101239190611125565b60405180910390f35b610134610373565b6040516101419190611125565b60405180910390f35b610152610378565b60405161015f91906111bf565b60405180910390f35b61017061039e565b60405161017d91906111fb565b60405180910390f35b61018e6103c4565b60405161019b9190611125565b60405180910390f35b6101be60048036038101906101b99190611254565b6103c9565b6040516101ce949392919061129c565b60405180910390f35b6101f160048036038101906101ec91906110e9565b610406565b005b6101fb6108ea565b6040516102089190611302565b60405180910390f35b61022b60048036038101906102269190611254565b61090e565b60405161023b949392919061129c565b60405180910390f35b61024c6109bf565b005b61025661105e565b6040516102639190611125565b60405180910390f35b60008054906101000a900473ffffffffffffffffffffffffffffffffffffffff1673ffffffffffffffffffffffffffffffffffffffff166323b872dd3330846040518463ffffffff1660e01b81526004016102c99392919061132c565b6020604051808303816000875af11580156102e8573d6000803e3d6000fd5b505050506040513d601f19601f8201168201806040525081019061030c919061138f565b61034b576040517f08c379a000000000000000000000000000000000000000000000000000000000815260040161034290611419565b60405180910390fd5b806004600082825461035d9190611468565b9250508190555050565b601981565b62093a8081565b600a81565b600160009054906101000a900473ffffffffffffffffffffffffffffffffffffffff1681565b600260009054906101000a900473ffffffffffffffffffffffffffffffffffffffff1681565b600a81565b60036020528060005260406000206000915090508060000154908060010154908060020154908060030160009054906101000a900460ff16905084565b600160009054906101000a900473ffffffffffffffffffffffffffffffffffffffff1673ffffffffffffffffffffffffffffffffffffffff1663c3c5a547336040518263ffffffff1660e01b8152600401610461919061149c565b602060405180830381865afa15801561047e573d6000803e3d6000fd5b505050506040513d601f19601f820116820180604052508101906104a2919061138f565b6104e1576040517f08c379a00000000000000000000000000000000000000000000000000000000081526004016104d890611503565b60405180910390fd5b600360003373ffffffffffffffffffffffffffffffffffffffff1673ffffffffffffffffffffffffffffffffffffffff16815260200190815260200160002060030160009054906101000a900460ff1615610571576040517f08c379a00000000000000000000000000000000000000000000000000000000081526004016105689061156f565b60405180910390fd5b6004548111156105b6576040517f08c379a00000000000000000000000000000000000000000000000000000000081526004016105ad906115db565b60405180910390fd5b60006064600a836105c791906115fb565b6105d1919061166c565b905060008054906101000a900473ffffffffffffffffffffffffffffffffffffffff1673ffffffffffffffffffffffffffffffffffffffff166323b872dd3330846040518463ffffffff1660e01b81526004016106309392919061132c565b6020604051808303816000875af115801561064f573d6000803e3d6000fd5b505050506040513d601f19601f82011682018060405250810190610673919061138f565b6106b2576040517f08c379a00000000000000000000000000000000000000000000000000000000081526004016106a9906116e9565b60405180910390fd5b81600460008282546106c49190611709565b92505081905550600160009054906101000a900473ffffffffffffffffffffffffffffffffffffffff1673ffffffffffffffffffffffffffffffffffffffff16630c91426d33846040518363ffffffff1660e01b815260040161072892919061173d565b600060405180830381600087803b15801561074257600080fd5b505af1158015610756573d6000803e3d6000fd5b505050506000600260009054906101000a900473ffffffffffffffffffffffffffffffffffffffff1673ffffffffffffffffffffffffffffffffffffffff1663feaf968c6040518163ffffffff1660e01b815260040160a060405180830381865afa1580156107c9573d6000803e3d6000fd5b505050506040513d601f19601f820116820180604052508101906107ed91906117f3565b505050915050604051806080016040528084815260200142815260200182815260200160011515815250600360003373ffffffffffffffffffffffffffffffffffffffff1673ffffffffffffffffffffffffffffffffffffffff16815260200190815260200160002060008201518160000155602082015181600101556040820151816002015560608201518160030160006101000a81548160ff0219169083151502179055509050503373ffffffffffffffffffffffffffffffffffffffff167fac59582e5396aca512fa873a2047e7f4c80f8f55d4a06cb34a78a0187f62719f846040516108dd9190611125565b60405180910390a2505050565b60008054906101000a900473ffffffffffffffffffffffffffffffffffffffff1681565b6000806000806000600360008773ffffffffffffffffffffffffffffffffffffffff1673ffffffffffffffffffffffffffffffffffffffff1681526020019081526020016000206040518060800160405290816000820154815260200160018201548152602001600282015481526020016003820160009054906101000a900460ff161515151581525050905080600001518160200151826040015183606001519450945094509450509193509193565b6000600360003373ffffffffffffffffffffffffffffffffffffffff1673ffffffffffffffffffffffffffffffffffffffff16815260200190815260200160002090508060030160009054906101000a900460ff16610a53576040517f08c379a0000000000000000000000000000000000000000000000000000000008152600401610a4a906118ba565b60405180910390fd5b62093a808160010154610a669190611468565b421015610aa8576040517f08c379a0000000000000000000000000000000000000000000000000000000008152600401610a9f90611926565b60405180910390fd5b6000600260009054906101000a900473ffffffffffffffffffffffffffffffffffffffff1673ffffffffffffffffffffffffffffffffffffffff1663feaf968c6040518163ffffffff1660e01b815260040160a060405180830381865afa158015610b17573d6000803e3d6000fd5b505050506040513d601f19601f82011682018060405250810190610b3b91906117f3565b50505091505060008260020154828460000154610b5891906115fb565b610b62919061166c565b90508260000154811115610e0e576000836000015482610b829190611709565b905060006064601983610b9591906115fb565b610b9f919061166c565b905060008183610baf9190611709565b9050818660000154610bc19190611468565b60046000828254610bd29190611468565b9250508190555060008054906101000a900473ffffffffffffffffffffffffffffffffffffffff1673ffffffffffffffffffffffffffffffffffffffff1663a9059cbb33836040518363ffffffff1660e01b8152600401610c3492919061173d565b6020604051808303816000875af1158015610c53573d6000803e3d6000fd5b505050506040513d601f19601f82011682018060405250810190610c77919061138f565b610cb6576040517f08c379a0000000000000000000000000000000000000000000000000000000008152600401610cad90611992565b60405180910390fd5b60006064600a8860000154610ccb91906115fb565b610cd5919061166c565b905060008054906101000a900473ffffffffffffffffffffffffffffffffffffffff1673ffffffffffffffffffffffffffffffffffffffff1663a9059cbb33836040518363ffffffff1660e01b8152600401610d3292919061173d565b6020604051808303816000875af1158015610d51573d6000803e3d6000fd5b505050506040513d601f19601f82011682018060405250810190610d75919061138f565b610db4576040517f08c379a0000000000000000000000000000000000000000000000000000000008152600401610dab906119fe565b60405180910390fd5b3373ffffffffffffffffffffffffffffffffffffffff167f32b1eeadbe2d36ad64238ef29d8064aedff6d8150cf1f0c4d6617bae1c00d926836000604051610dfd929190611a59565b60405180910390a250505050610ebf565b6000818460000154610e209190611709565b905060006064600a8660000154610e3791906115fb565b610e41919061166c565b9050808560000154610e539190611468565b60046000828254610e649190611468565b925050819055503373ffffffffffffffffffffffffffffffffffffffff167f32b1eeadbe2d36ad64238ef29d8064aedff6d8150cf1f0c4d6617bae1c00d926600084604051610eb4929190611a82565b60405180910390a250505b600160009054906101000a900473ffffffffffffffffffffffffffffffffffffffff1673ffffffffffffffffffffffffffffffffffffffff1663f5c91a0833610f0c866000015485611064565b6040518363ffffffff1660e01b8152600401610f2992919061173d565b600060405180830381600087803b158015610f4357600080fd5b505af1158015610f57573d6000803e3d6000fd5b50505050600160009054906101000a900473ffffffffffffffffffffffffffffffffffffffff1673ffffffffffffffffffffffffffffffffffffffff16630c91426d3360006040518363ffffffff1660e01b8152600401610fb9929190611aab565b600060405180830381600087803b158015610fd357600080fd5b505af1158015610fe7573d6000803e3d6000fd5b50505050600360003373ffffffffffffffffffffffffffffffffffffffff1673ffffffffffffffffffffffffffffffffffffffff168152602001908152602001600020600080820160009055600182016000905560028201600090556003820160006101000a81549060ff02191690555050505050565b60045481565b60008282111561108d578260648361107c91906115fb565b611086919061166c565b90506110a8565b8260328361109b91906115fb565b6110a5919061166c565b90505b92915050565b600080fd5b6000819050919050565b6110c6816110b3565b81146110d157600080fd5b50565b6000813590506110e3816110bd565b92915050565b6000602082840312156110ff576110fe6110ae565b5b600061110d848285016110d4565b91505092915050565b61111f816110b3565b82525050565b600060208201905061113a6000830184611116565b92915050565b600073ffffffffffffffffffffffffffffffffffffffff82169050919050565b6000819050919050565b600061118561118061117b84611140565b611160565b611140565b9050919050565b60006111978261116a565b9050919050565b60006111a98261118c565b9050919050565b6111b98161119e565b82525050565b60006020820190506111d460008301846111b0565b92915050565b60006111e58261118c565b9050919050565b6111f5816111da565b82525050565b600060208201905061121060008301846111ec565b92915050565b600061122182611140565b9050919050565b61123181611216565b811461123c57600080fd5b50565b60008135905061124e81611228565b92915050565b60006020828403121561126a576112696110ae565b5b60006112788482850161123f565b91505092915050565b60008115159050919050565b61129681611281565b82525050565b60006080820190506112b16000830187611116565b6112be6020830186611116565b6112cb6040830185611116565b6112d8606083018461128d565b95945050505050565b60006112ec8261118c565b9050919050565b6112fc816112e1565b82525050565b600060208201905061131760008301846112f3565b92915050565b61132681611216565b82525050565b6000606082019050611341600083018661131d565b61134e602083018561131d565b61135b6040830184611116565b949350505050565b61136c81611281565b811461137757600080fd5b50565b60008151905061138981611363565b92915050565b6000602082840312156113a5576113a46110ae565b5b60006113b38482850161137a565b91505092915050565b600082825260208201905092915050565b7f46756e64207472616e73666572206661696c6564000000000000000000000000600082015250565b60006114036014836113bc565b915061140e826113cd565b602082019050919050565b60006020820190508181036000830152611432816113f6565b9050919050565b7f4e487b7100000000000000000000000000000000000000000000000000000000600052601160045260246000fd5b6000611473826110b3565b915061147e836110b3565b925082820190508082111561149657611495611439565b5b92915050565b60006020820190506114b1600083018461131d565b92915050565b7f55736572206e6f74207265676973746572656400000000000000000000000000600082015250565b60006114ed6013836113bc565b91506114f8826114b7565b602082019050919050565b6000602082019050818103600083015261151c816114e0565b9050919050565b7f4163746976652074726164652065786973747300000000000000000000000000600082015250565b60006115596013836113bc565b915061156482611523565b602082019050919050565b600060208201905081810360008301526115888161154c565b9050919050565b7f496e73756666696369656e7420706f6f6c2066756e6473000000000000000000600082015250565b60006115c56017836113bc565b91506115d08261158f565b602082019050919050565b600060208201905081810360008301526115f4816115b8565b9050919050565b6000611606826110b3565b9150611611836110b3565b925082820261161f816110b3565b9150828204841483151761163657611635611439565b5b5092915050565b7f4e487b7100000000000000000000000000000000000000000000000000000000600052601260045260246000fd5b6000611677826110b3565b9150611682836110b3565b9250826116925761169161163d565b5b828204905092915050565b7f5374616b65207472616e73666572206661696c65640000000000000000000000600082015250565b60006116d36015836113bc565b91506116de8261169d565b602082019050919050565b60006020820190508181036000830152611702816116c6565b9050919050565b6000611714826110b3565b915061171f836110b3565b925082820390508181111561173757611736611439565b5b92915050565b6000604082019050611752600083018561131d565b61175f6020830184611116565b9392505050565b600069ffffffffffffffffffff82169050919050565b61178581611766565b811461179057600080fd5b50565b6000815190506117a28161177c565b92915050565b6000819050919050565b6117bb816117a8565b81146117c657600080fd5b50565b6000815190506117d8816117b2565b92915050565b6000815190506117ed816110bd565b92915050565b600080600080600060a0868803121561180f5761180e6110ae565b5b600061181d88828901611793565b955050602061182e888289016117c9565b945050604061183f888289016117de565b9350506060611850888289016117de565b925050608061186188828901611793565b9150509295509295909350565b7f4e6f206163746976652074726164650000000000000000000000000000000000600082015250565b60006118a4600f836113bc565b91506118af8261186e565b602082019050919050565b600060208201905081810360008301526118d381611897565b9050919050565b7f426f72726f7720706572696f64206e6f7420656e646564000000000000000000600082015250565b60006119106017836113bc565b915061191b826118da565b602082019050919050565b6000602082019050818103600083015261193f81611903565b9050919050565b7f50726f666974207472616e73666572206661696c656400000000000000000000600082015250565b600061197c6016836113bc565b915061198782611946565b602082019050919050565b600060208201905081810360008301526119ab8161196f565b9050919050565b7f5374616b652072657475726e206661696c656400000000000000000000000000600082015250565b60006119e86013836113bc565b91506119f3826119b2565b602082019050919050565b60006020820190508181036000830152611a17816119db565b9050919050565b6000819050919050565b6000611a43611a3e611a3984611a1e565b611160565b6110b3565b9050919050565b611a5381611a28565b82525050565b6000604082019050611a6e6000830185611116565b611a7b6020830184611a4a565b9392505050565b6000604082019050611a976000830185611a4a565b611aa46020830184611116565b9392505050565b6000604082019050611ac0600083018561131d565b611acd6020830184611a4a565b939250505056fea26469706673582212206d28e52b21a6b4aa44bb16d78d858b1dbc888049141ff77780781f3b07d833e564736f6c63430008180033",
  "linkReferences": {},
  "deployedLinkReferences": {}
}